{
  "_format": "hh-sol-artifact-1",
  "contractName": "ExampleNFT",
  "sourceName": "contracts/ExampleNFT.sol",
  "abi": [
    {
      "inputs": [],
      "stateMutability": "nonpayable",
      "type": "constructor"
    },
    {
      "anonymous": false,
      "inputs": [
        {
          "indexed": true,
          "internalType": "address",
          "name": "account",
          "type": "address"
        },
        {
          "indexed": true,
          "internalType": "address",
          "name": "operator",
          "type": "address"
        },
        {
          "indexed": false,
          "internalType": "bool",
          "name": "approved",
          "type": "bool"
        }
      ],
      "name": "ApprovalForAll",
      "type": "event"
    },
    {
      "anonymous": false,
      "inputs": [
        {
          "indexed": true,
          "internalType": "address",
          "name": "previousOwner",
          "type": "address"
        },
        {
          "indexed": true,
          "internalType": "address",
          "name": "newOwner",
          "type": "address"
        }
      ],
      "name": "OwnershipTransferred",
      "type": "event"
    },
    {
      "anonymous": false,
      "inputs": [
        {
          "indexed": true,
          "internalType": "address",
          "name": "operator",
          "type": "address"
        },
        {
          "indexed": true,
          "internalType": "address",
          "name": "from",
          "type": "address"
        },
        {
          "indexed": true,
          "internalType": "address",
          "name": "to",
          "type": "address"
        },
        {
          "indexed": false,
          "internalType": "uint256[]",
          "name": "ids",
          "type": "uint256[]"
        },
        {
          "indexed": false,
          "internalType": "uint256[]",
          "name": "values",
          "type": "uint256[]"
        }
      ],
      "name": "TransferBatch",
      "type": "event"
    },
    {
      "anonymous": false,
      "inputs": [
        {
          "indexed": true,
          "internalType": "address",
          "name": "operator",
          "type": "address"
        },
        {
          "indexed": true,
          "internalType": "address",
          "name": "from",
          "type": "address"
        },
        {
          "indexed": true,
          "internalType": "address",
          "name": "to",
          "type": "address"
        },
        {
          "indexed": false,
          "internalType": "uint256",
          "name": "id",
          "type": "uint256"
        },
        {
          "indexed": false,
          "internalType": "uint256",
          "name": "value",
          "type": "uint256"
        }
      ],
      "name": "TransferSingle",
      "type": "event"
    },
    {
      "anonymous": false,
      "inputs": [
        {
          "indexed": false,
          "internalType": "string",
          "name": "value",
          "type": "string"
        },
        {
          "indexed": true,
          "internalType": "uint256",
          "name": "id",
          "type": "uint256"
        }
      ],
      "name": "URI",
      "type": "event"
    },
    {
      "inputs": [
        {
          "internalType": "address",
          "name": "account",
          "type": "address"
        },
        {
          "internalType": "uint256",
          "name": "id",
          "type": "uint256"
        }
      ],
      "name": "balanceOf",
      "outputs": [
        {
          "internalType": "uint256",
          "name": "",
          "type": "uint256"
        }
      ],
      "stateMutability": "view",
      "type": "function"
    },
    {
      "inputs": [
        {
          "internalType": "address[]",
          "name": "accounts",
          "type": "address[]"
        },
        {
          "internalType": "uint256[]",
          "name": "ids",
          "type": "uint256[]"
        }
      ],
      "name": "balanceOfBatch",
      "outputs": [
        {
          "internalType": "uint256[]",
          "name": "",
          "type": "uint256[]"
        }
      ],
      "stateMutability": "view",
      "type": "function"
    },
    {
      "inputs": [
        {
          "internalType": "address",
          "name": "account",
          "type": "address"
        },
        {
          "internalType": "address",
          "name": "operator",
          "type": "address"
        }
      ],
      "name": "isApprovedForAll",
      "outputs": [
        {
          "internalType": "bool",
          "name": "",
          "type": "bool"
        }
      ],
      "stateMutability": "view",
      "type": "function"
    },
    {
      "inputs": [
        {
          "internalType": "uint256",
          "name": "",
          "type": "uint256"
        }
      ],
      "name": "maxPerTokenId",
      "outputs": [
        {
          "internalType": "uint256",
          "name": "",
          "type": "uint256"
        }
      ],
      "stateMutability": "view",
      "type": "function"
    },
    {
      "inputs": [
        {
          "internalType": "uint256",
          "name": "",
          "type": "uint256"
        }
      ],
      "name": "maxSupply",
      "outputs": [
        {
          "internalType": "uint256",
          "name": "",
          "type": "uint256"
        }
      ],
      "stateMutability": "view",
      "type": "function"
    },
    {
      "inputs": [],
      "name": "merkleRoot",
      "outputs": [
        {
          "internalType": "bytes32",
          "name": "",
          "type": "bytes32"
        }
      ],
      "stateMutability": "view",
      "type": "function"
    },
    {
      "inputs": [
        {
          "internalType": "uint256",
          "name": "",
          "type": "uint256"
        }
      ],
      "name": "mintAmount",
      "outputs": [
        {
          "internalType": "uint256",
          "name": "",
          "type": "uint256"
        }
      ],
      "stateMutability": "view",
      "type": "function"
    },
    {
      "inputs": [
        {
          "internalType": "uint256",
          "name": "",
          "type": "uint256"
        }
      ],
      "name": "mintPrice",
      "outputs": [
        {
          "internalType": "uint256",
          "name": "",
          "type": "uint256"
        }
      ],
      "stateMutability": "view",
      "type": "function"
    },
    {
      "inputs": [
        {
          "internalType": "uint256",
          "name": "_id",
          "type": "uint256"
        },
        {
          "internalType": "uint256",
          "name": "_amount",
          "type": "uint256"
        }
      ],
      "name": "mintPublic",
      "outputs": [],
      "stateMutability": "payable",
      "type": "function"
    },
    {
      "inputs": [
        {
          "internalType": "uint256",
          "name": "_id",
          "type": "uint256"
        },
        {
          "internalType": "uint256",
          "name": "_amount",
          "type": "uint256"
        },
        {
          "internalType": "bytes32[]",
          "name": "merkleProof",
          "type": "bytes32[]"
        }
      ],
      "name": "mintWLOnly",
      "outputs": [],
      "stateMutability": "payable",
      "type": "function"
    },
    {
      "inputs": [],
      "name": "name",
      "outputs": [
        {
          "internalType": "string",
          "name": "",
          "type": "string"
        }
      ],
      "stateMutability": "view",
      "type": "function"
    },
    {
      "inputs": [],
      "name": "owner",
      "outputs": [
        {
          "internalType": "address",
          "name": "",
          "type": "address"
        }
      ],
      "stateMutability": "view",
      "type": "function"
    },
    {
      "inputs": [],
      "name": "renounceOwnership",
      "outputs": [],
      "stateMutability": "nonpayable",
      "type": "function"
    },
    {
      "inputs": [
        {
          "internalType": "address",
          "name": "from",
          "type": "address"
        },
        {
          "internalType": "address",
          "name": "to",
          "type": "address"
        },
        {
          "internalType": "uint256[]",
          "name": "ids",
          "type": "uint256[]"
        },
        {
          "internalType": "uint256[]",
          "name": "amounts",
          "type": "uint256[]"
        },
        {
          "internalType": "bytes",
          "name": "data",
          "type": "bytes"
        }
      ],
      "name": "safeBatchTransferFrom",
      "outputs": [],
      "stateMutability": "nonpayable",
      "type": "function"
    },
    {
      "inputs": [
        {
          "internalType": "address",
          "name": "from",
          "type": "address"
        },
        {
          "internalType": "address",
          "name": "to",
          "type": "address"
        },
        {
          "internalType": "uint256",
          "name": "id",
          "type": "uint256"
        },
        {
          "internalType": "uint256",
          "name": "amount",
          "type": "uint256"
        },
        {
          "internalType": "bytes",
          "name": "data",
          "type": "bytes"
        }
      ],
      "name": "safeTransferFrom",
      "outputs": [],
      "stateMutability": "nonpayable",
      "type": "function"
    },
    {
      "inputs": [],
      "name": "saleState",
      "outputs": [
        {
          "internalType": "uint256",
          "name": "",
          "type": "uint256"
        }
      ],
      "stateMutability": "view",
      "type": "function"
    },
    {
      "inputs": [
        {
          "internalType": "address",
          "name": "operator",
          "type": "address"
        },
        {
          "internalType": "bool",
          "name": "approved",
          "type": "bool"
        }
      ],
      "name": "setApprovalForAll",
      "outputs": [],
      "stateMutability": "nonpayable",
      "type": "function"
    },
    {
      "inputs": [
        {
          "internalType": "uint256",
          "name": "_id",
          "type": "uint256"
        },
        {
          "internalType": "uint256",
          "name": "_maxSupply",
          "type": "uint256"
        }
      ],
      "name": "setMaxSupply",
      "outputs": [],
      "stateMutability": "nonpayable",
      "type": "function"
    },
    {
      "inputs": [
        {
          "internalType": "bytes32",
          "name": "_merkleRoot",
          "type": "bytes32"
        }
      ],
      "name": "setMerkleRoot",
      "outputs": [],
      "stateMutability": "nonpayable",
      "type": "function"
    },
    {
      "inputs": [
        {
          "internalType": "uint256",
          "name": "_id",
          "type": "uint256"
        },
        {
          "internalType": "uint256",
          "name": "_mintAmount",
          "type": "uint256"
        }
      ],
      "name": "setMintAmount",
      "outputs": [],
      "stateMutability": "nonpayable",
      "type": "function"
    },
    {
      "inputs": [
        {
          "internalType": "uint256",
          "name": "_id",
          "type": "uint256"
        },
        {
          "internalType": "uint256",
          "name": "_mintPrice",
          "type": "uint256"
        }
      ],
      "name": "setMintPrice",
      "outputs": [],
      "stateMutability": "nonpayable",
      "type": "function"
    },
    {
      "inputs": [
        {
          "internalType": "uint256",
          "name": "_saleState",
          "type": "uint256"
        }
      ],
      "name": "setSaleState",
      "outputs": [],
      "stateMutability": "nonpayable",
      "type": "function"
    },
    {
      "inputs": [
        {
          "internalType": "string",
          "name": "newuri",
          "type": "string"
        }
      ],
      "name": "setURI",
      "outputs": [],
      "stateMutability": "nonpayable",
      "type": "function"
    },
    {
      "inputs": [
        {
          "internalType": "address payable",
          "name": "_withdrawWallet",
          "type": "address"
        }
      ],
      "name": "setWithdrawWallet",
      "outputs": [],
      "stateMutability": "nonpayable",
      "type": "function"
    },
    {
      "inputs": [
        {
          "internalType": "uint256",
          "name": "_id",
          "type": "uint256"
        },
        {
          "internalType": "uint256",
          "name": "_maxPerTokenId",
          "type": "uint256"
        }
      ],
      "name": "setmaxPerTokenId",
      "outputs": [],
      "stateMutability": "nonpayable",
      "type": "function"
    },
    {
      "inputs": [
        {
          "internalType": "bytes4",
          "name": "interfaceId",
          "type": "bytes4"
        }
      ],
      "name": "supportsInterface",
      "outputs": [
        {
          "internalType": "bool",
          "name": "",
          "type": "bool"
        }
      ],
      "stateMutability": "view",
      "type": "function"
    },
    {
      "inputs": [],
      "name": "symbol",
      "outputs": [
        {
          "internalType": "string",
          "name": "",
          "type": "string"
        }
      ],
      "stateMutability": "view",
      "type": "function"
    },
    {
      "inputs": [
        {
          "internalType": "address",
          "name": "newOwner",
          "type": "address"
        }
      ],
      "name": "transferOwnership",
      "outputs": [],
      "stateMutability": "nonpayable",
      "type": "function"
    },
    {
      "inputs": [
        {
          "internalType": "uint256",
          "name": "_tokenId",
          "type": "uint256"
        }
      ],
      "name": "uri",
      "outputs": [
        {
          "internalType": "string",
          "name": "",
          "type": "string"
        }
      ],
      "stateMutability": "pure",
      "type": "function"
    },
    {
      "inputs": [],
      "name": "withdraw",
      "outputs": [],
      "stateMutability": "nonpayable",
      "type": "function"
    },
    {
      "inputs": [],
      "name": "withdrawWallet",
      "outputs": [
        {
          "internalType": "address payable",
          "name": "",
          "type": "address"
        }
      ],
      "stateMutability": "view",
      "type": "function"
    }
  ],
  "bytecode": "0x60806040523480156200001157600080fd5b506040518060800160405280605a81526020016200468d605a91396200003d816200010060201b60201c565b506200005e620000526200011c60201b60201c565b6200012460201b60201c565b6040518060400160405280600781526020017f4578616d706c650000000000000000000000000000000000000000000000000081525060049080519060200190620000ab929190620001ea565b506040518060400160405280600581526020017f584d504c4500000000000000000000000000000000000000000000000000000081525060059080519060200190620000f9929190620001ea565b50620002ff565b806002908051906020019062000118929190620001ea565b5050565b600033905090565b6000600360009054906101000a900473ffffffffffffffffffffffffffffffffffffffff16905081600360006101000a81548173ffffffffffffffffffffffffffffffffffffffff021916908373ffffffffffffffffffffffffffffffffffffffff1602179055508173ffffffffffffffffffffffffffffffffffffffff168173ffffffffffffffffffffffffffffffffffffffff167f8be0079c531659141344cd1fd0a4f28419497f9722a3daafe3b4186f6b6457e060405160405180910390a35050565b828054620001f890620002c9565b90600052602060002090601f0160209004810192826200021c576000855562000268565b82601f106200023757805160ff191683800117855562000268565b8280016001018555821562000268579182015b82811115620002675782518255916020019190600101906200024a565b5b5090506200027791906200027b565b5090565b5b80821115620002965760008160009055506001016200027c565b5090565b7f4e487b7100000000000000000000000000000000000000000000000000000000600052602260045260246000fd5b60006002820490506001821680620002e257607f821691505b60208210811415620002f957620002f86200029a565b5b50919050565b61437e806200030f6000396000f3fe6080604052600436106101d75760003560e01c8063715018a611610102578063a22cb46511610095578063ed5ab3f611610064578063ed5ab3f6146106aa578063f242432a146106c6578063f2fde38b146106ef578063fc0c1d9014610718576101d7565b8063a22cb465146105ca578063e412c3c8146105f3578063e6a72acf14610630578063e985e9c51461066d576101d7565b8063869f7594116100d1578063869f75941461050e5780638da5cb5b1461054b5780639373f4321461057657806395d89b411461059f576101d7565b8063715018a61461047a5780637cb647591461049157806382af06e7146104ba57806385d178f4146104e3576101d7565b80632eb2c2d61161017a5780633ccfd60b116101495780633ccfd60b146103df5780634e1273f4146103f65780635d2d543414610433578063603f4d521461044f576101d7565b80632eb2c2d6146103395780632eb4a7ab14610362578063362b5d3a1461038d57806337da577c146103b6576101d7565b80630442bfa8116101b65780630442bfa81461027f57806306fdde03146102a8578063084c4088146102d35780630e89341c146102fc576101d7565b8062fdd58e146101dc57806301ffc9a71461021957806302fe530514610256575b600080fd5b3480156101e857600080fd5b5061020360048036038101906101fe919061280a565b610755565b6040516102109190612859565b60405180910390f35b34801561022557600080fd5b50610240600480360381019061023b91906128cc565b61081e565b60405161024d9190612914565b60405180910390f35b34801561026257600080fd5b5061027d60048036038101906102789190612a75565b610900565b005b34801561028b57600080fd5b506102a660048036038101906102a19190612abe565b610914565b005b3480156102b457600080fd5b506102bd610938565b6040516102ca9190612b86565b60405180910390f35b3480156102df57600080fd5b506102fa60048036038101906102f59190612ba8565b6109c6565b005b34801561030857600080fd5b50610323600480360381019061031e9190612ba8565b6109d8565b6040516103309190612b86565b60405180910390f35b34801561034557600080fd5b50610360600480360381019061035b9190612d3e565b610a09565b005b34801561036e57600080fd5b50610377610aaa565b6040516103849190612e26565b60405180910390f35b34801561039957600080fd5b506103b460048036038101906103af9190612abe565b610ab0565b005b3480156103c257600080fd5b506103dd60048036038101906103d89190612abe565b610ad4565b005b3480156103eb57600080fd5b506103f4610af8565b005b34801561040257600080fd5b5061041d60048036038101906104189190612f04565b610bd1565b60405161042a919061303a565b60405180910390f35b61044d600480360381019061044891906130b7565b610cea565b005b34801561045b57600080fd5b50610464610f5d565b6040516104719190612859565b60405180910390f35b34801561048657600080fd5b5061048f610f63565b005b34801561049d57600080fd5b506104b860048036038101906104b39190613157565b610f77565b005b3480156104c657600080fd5b506104e160048036038101906104dc9190612abe565b610f89565b005b3480156104ef57600080fd5b506104f8610fad565b60405161050591906131a5565b60405180910390f35b34801561051a57600080fd5b5061053560048036038101906105309190612ba8565b610fd3565b6040516105429190612859565b60405180910390f35b34801561055757600080fd5b50610560610feb565b60405161056d91906131cf565b60405180910390f35b34801561058257600080fd5b5061059d60048036038101906105989190613216565b611015565b005b3480156105ab57600080fd5b506105b4611061565b6040516105c19190612b86565b60405180910390f35b3480156105d657600080fd5b506105f160048036038101906105ec919061326f565b6110ef565b005b3480156105ff57600080fd5b5061061a60048036038101906106159190612ba8565b611105565b6040516106279190612859565b60405180910390f35b34801561063c57600080fd5b5061065760048036038101906106529190612ba8565b61111d565b6040516106649190612859565b60405180910390f35b34801561067957600080fd5b50610694600480360381019061068f91906132af565b611135565b6040516106a19190612914565b60405180910390f35b6106c460048036038101906106bf9190612abe565b6111c9565b005b3480156106d257600080fd5b506106ed60048036038101906106e891906132ef565b611381565b005b3480156106fb57600080fd5b5061071660048036038101906107119190613386565b611422565b005b34801561072457600080fd5b5061073f600480360381019061073a9190612ba8565b6114a6565b60405161074c9190612859565b60405180910390f35b60008073ffffffffffffffffffffffffffffffffffffffff168373ffffffffffffffffffffffffffffffffffffffff1614156107c6576040517f08c379a00000000000000000000000000000000000000000000000000000000081526004016107bd90613425565b60405180910390fd5b60008083815260200190815260200160002060008473ffffffffffffffffffffffffffffffffffffffff1673ffffffffffffffffffffffffffffffffffffffff16815260200190815260200160002054905092915050565b60007fd9b67a26000000000000000000000000000000000000000000000000000000007bffffffffffffffffffffffffffffffffffffffffffffffffffffffff1916827bffffffffffffffffffffffffffffffffffffffffffffffffffffffff191614806108e957507f0e89341c000000000000000000000000000000000000000000000000000000007bffffffffffffffffffffffffffffffffffffffffffffffffffffffff1916827bffffffffffffffffffffffffffffffffffffffffffffffffffffffff1916145b806108f957506108f8826114be565b5b9050919050565b610908611528565b610911816115a6565b50565b61091c611528565b80600b6000848152602001908152602001600020819055505050565b6004805461094590613474565b80601f016020809104026020016040519081016040528092919081815260200182805461097190613474565b80156109be5780601f10610993576101008083540402835291602001916109be565b820191906000526020600020905b8154815290600101906020018083116109a157829003601f168201915b505050505081565b6109ce611528565b8060068190555050565b60606109e3826115c0565b6040516020016109f391906135c6565b6040516020818303038152906040529050919050565b610a11611698565b73ffffffffffffffffffffffffffffffffffffffff168573ffffffffffffffffffffffffffffffffffffffff161480610a575750610a5685610a51611698565b611135565b5b610a96576040517f08c379a0000000000000000000000000000000000000000000000000000000008152600401610a8d90613665565b60405180910390fd5b610aa385858585856116a0565b5050505050565b600c5481565b610ab8611528565b80600a6000848152602001908152602001600020819055505050565b610adc611528565b8060096000848152602001908152602001600020819055505050565b610b00611528565b6000600760009054906101000a900473ffffffffffffffffffffffffffffffffffffffff1673ffffffffffffffffffffffffffffffffffffffff1647604051610b48906136b6565b60006040518083038185875af1925050503d8060008114610b85576040519150601f19603f3d011682016040523d82523d6000602084013e610b8a565b606091505b5050905080610bce576040517f08c379a0000000000000000000000000000000000000000000000000000000008152600401610bc590613717565b60405180910390fd5b50565b60608151835114610c17576040517f08c379a0000000000000000000000000000000000000000000000000000000008152600401610c0e906137a9565b60405180910390fd5b6000835167ffffffffffffffff811115610c3457610c3361294a565b5b604051908082528060200260200182016040528015610c625781602001602082028036833780820191505090505b50905060005b8451811015610cdf57610caf858281518110610c8757610c866137c9565b5b6020026020010151858381518110610ca257610ca16137c9565b5b6020026020010151610755565b828281518110610cc257610cc16137c9565b5b60200260200101818152505080610cd890613827565b9050610c68565b508091505092915050565b600960008581526020019081526020016000205483600a600087815260200190815260200160002054610d1d9190613870565b1115610d5e576040517f08c379a0000000000000000000000000000000000000000000000000000000008152600401610d5590613912565b60405180910390fd5b600160065414610da3576040517f08c379a0000000000000000000000000000000000000000000000000000000008152600401610d9a9061397e565b60405180910390fd5b82600b600086815260200190815260200160002054610dc2919061399e565b3414610e03576040517f08c379a0000000000000000000000000000000000000000000000000000000008152600401610dfa90613a44565b60405180910390fd5b6008600085815260200190815260200160002054831115610e59576040517f08c379a0000000000000000000000000000000000000000000000000000000008152600401610e5090613ab0565b60405180910390fd5b600033604051602001610e6c9190613b18565b604051602081830303815290604052805190602001209050610ed2838380806020026020016040519081016040528093929190818152602001838360200280828437600081840152601f19601f82011690508083019250505050505050600c54836119c2565b610f11576040517f08c379a0000000000000000000000000000000000000000000000000000000008152600401610f0890613b7f565b60405180910390fd5b83600a60008781526020019081526020016000206000828254610f349190613870565b92505081905550610f56338686604051806020016040528060008152506119d9565b5050505050565b60065481565b610f6b611528565b610f756000611b8a565b565b610f7f611528565b80600c8190555050565b610f91611528565b8060086000848152602001908152602001600020819055505050565b600760009054906101000a900473ffffffffffffffffffffffffffffffffffffffff1681565b60096020528060005260406000206000915090505481565b6000600360009054906101000a900473ffffffffffffffffffffffffffffffffffffffff16905090565b61101d611528565b80600760006101000a81548173ffffffffffffffffffffffffffffffffffffffff021916908373ffffffffffffffffffffffffffffffffffffffff16021790555050565b6005805461106e90613474565b80601f016020809104026020016040519081016040528092919081815260200182805461109a90613474565b80156110e75780601f106110bc576101008083540402835291602001916110e7565b820191906000526020600020905b8154815290600101906020018083116110ca57829003601f168201915b505050505081565b6111016110fa611698565b8383611c50565b5050565b600a6020528060005260406000206000915090505481565b600b6020528060005260406000206000915090505481565b6000600160008473ffffffffffffffffffffffffffffffffffffffff1673ffffffffffffffffffffffffffffffffffffffff16815260200190815260200160002060008373ffffffffffffffffffffffffffffffffffffffff1673ffffffffffffffffffffffffffffffffffffffff16815260200190815260200160002060009054906101000a900460ff16905092915050565b600960008381526020019081526020016000205481600a6000858152602001908152602001600020546111fc9190613870565b111561123d576040517f08c379a000000000000000000000000000000000000000000000000000000000815260040161123490613912565b60405180910390fd5b600260065414611282576040517f08c379a00000000000000000000000000000000000000000000000000000000081526004016112799061397e565b60405180910390fd5b80600b6000848152602001908152602001600020546112a1919061399e565b34146112e2576040517f08c379a00000000000000000000000000000000000000000000000000000000081526004016112d990613a44565b60405180910390fd5b6008600083815260200190815260200160002054811115611338576040517f08c379a000000000000000000000000000000000000000000000000000000000815260040161132f90613ab0565b60405180910390fd5b80600a6000848152602001908152602001600020600082825461135b9190613870565b9250508190555061137d338383604051806020016040528060008152506119d9565b5050565b611389611698565b73ffffffffffffffffffffffffffffffffffffffff168573ffffffffffffffffffffffffffffffffffffffff1614806113cf57506113ce856113c9611698565b611135565b5b61140e576040517f08c379a000000000000000000000000000000000000000000000000000000000815260040161140590613665565b60405180910390fd5b61141b8585858585611dbd565b5050505050565b61142a611528565b600073ffffffffffffffffffffffffffffffffffffffff168173ffffffffffffffffffffffffffffffffffffffff16141561149a576040517f08c379a000000000000000000000000000000000000000000000000000000000815260040161149190613c11565b60405180910390fd5b6114a381611b8a565b50565b60086020528060005260406000206000915090505481565b60007f01ffc9a7000000000000000000000000000000000000000000000000000000007bffffffffffffffffffffffffffffffffffffffffffffffffffffffff1916827bffffffffffffffffffffffffffffffffffffffffffffffffffffffff1916149050919050565b611530611698565b73ffffffffffffffffffffffffffffffffffffffff1661154e610feb565b73ffffffffffffffffffffffffffffffffffffffff16146115a4576040517f08c379a000000000000000000000000000000000000000000000000000000000815260040161159b90613c7d565b60405180910390fd5b565b80600290805190602001906115bc9291906126bf565b5050565b6060600060016115cf84612059565b01905060008167ffffffffffffffff8111156115ee576115ed61294a565b5b6040519080825280601f01601f1916602001820160405280156116205781602001600182028036833780820191505090505b509050600082602001820190505b60011561168d578080600190039150507f3031323334353637383961626364656600000000000000000000000000000000600a86061a8153600a858161167757611676613c9d565b5b04945060008514156116885761168d565b61162e565b819350505050919050565b600033905090565b81518351146116e4576040517f08c379a00000000000000000000000000000000000000000000000000000000081526004016116db90613d3e565b60405180910390fd5b600073ffffffffffffffffffffffffffffffffffffffff168473ffffffffffffffffffffffffffffffffffffffff161415611754576040517f08c379a000000000000000000000000000000000000000000000000000000000815260040161174b90613dd0565b60405180910390fd5b600061175e611698565b905061176e8187878787876121ac565b60005b845181101561191f57600085828151811061178f5761178e6137c9565b5b6020026020010151905060008583815181106117ae576117ad6137c9565b5b60200260200101519050600080600084815260200190815260200160002060008b73ffffffffffffffffffffffffffffffffffffffff1673ffffffffffffffffffffffffffffffffffffffff1681526020019081526020016000205490508181101561184f576040517f08c379a000000000000000000000000000000000000000000000000000000000815260040161184690613e62565b60405180910390fd5b81810360008085815260200190815260200160002060008c73ffffffffffffffffffffffffffffffffffffffff1673ffffffffffffffffffffffffffffffffffffffff168152602001908152602001600020819055508160008085815260200190815260200160002060008b73ffffffffffffffffffffffffffffffffffffffff1673ffffffffffffffffffffffffffffffffffffffff16815260200190815260200160002060008282546119049190613870565b925050819055505050508061191890613827565b9050611771565b508473ffffffffffffffffffffffffffffffffffffffff168673ffffffffffffffffffffffffffffffffffffffff168273ffffffffffffffffffffffffffffffffffffffff167f4a39dc06d4c0dbc64b70af90fd698a233a518aa5d07e595d983b8c0526c8f7fb8787604051611996929190613e82565b60405180910390a46119ac8187878787876121b4565b6119ba8187878787876121bc565b505050505050565b6000826119cf85846123a3565b1490509392505050565b600073ffffffffffffffffffffffffffffffffffffffff168473ffffffffffffffffffffffffffffffffffffffff161415611a49576040517f08c379a0000000000000000000000000000000000000000000000000000000008152600401611a4090613f2b565b60405180910390fd5b6000611a53611698565b90506000611a60856123f9565b90506000611a6d856123f9565b9050611a7e836000898585896121ac565b8460008088815260200190815260200160002060008973ffffffffffffffffffffffffffffffffffffffff1673ffffffffffffffffffffffffffffffffffffffff1681526020019081526020016000206000828254611add9190613870565b925050819055508673ffffffffffffffffffffffffffffffffffffffff16600073ffffffffffffffffffffffffffffffffffffffff168473ffffffffffffffffffffffffffffffffffffffff167fc3d58168c5ae7397731d063d5bbf3d657854427343f4c083240f7aacaa2d0f628989604051611b5b929190613f4b565b60405180910390a4611b72836000898585896121b4565b611b8183600089898989612473565b50505050505050565b6000600360009054906101000a900473ffffffffffffffffffffffffffffffffffffffff16905081600360006101000a81548173ffffffffffffffffffffffffffffffffffffffff021916908373ffffffffffffffffffffffffffffffffffffffff1602179055508173ffffffffffffffffffffffffffffffffffffffff168173ffffffffffffffffffffffffffffffffffffffff167f8be0079c531659141344cd1fd0a4f28419497f9722a3daafe3b4186f6b6457e060405160405180910390a35050565b8173ffffffffffffffffffffffffffffffffffffffff168373ffffffffffffffffffffffffffffffffffffffff161415611cbf576040517f08c379a0000000000000000000000000000000000000000000000000000000008152600401611cb690613fe6565b60405180910390fd5b80600160008573ffffffffffffffffffffffffffffffffffffffff1673ffffffffffffffffffffffffffffffffffffffff16815260200190815260200160002060008473ffffffffffffffffffffffffffffffffffffffff1673ffffffffffffffffffffffffffffffffffffffff16815260200190815260200160002060006101000a81548160ff0219169083151502179055508173ffffffffffffffffffffffffffffffffffffffff168373ffffffffffffffffffffffffffffffffffffffff167f17307eab39ab6107e8899845ad3d59bd9653f200f220920489ca2b5937696c3183604051611db09190612914565b60405180910390a3505050565b600073ffffffffffffffffffffffffffffffffffffffff168473ffffffffffffffffffffffffffffffffffffffff161415611e2d576040517f08c379a0000000000000000000000000000000000000000000000000000000008152600401611e2490613dd0565b60405180910390fd5b6000611e37611698565b90506000611e44856123f9565b90506000611e51856123f9565b9050611e618389898585896121ac565b600080600088815260200190815260200160002060008a73ffffffffffffffffffffffffffffffffffffffff1673ffffffffffffffffffffffffffffffffffffffff16815260200190815260200160002054905085811015611ef8576040517f08c379a0000000000000000000000000000000000000000000000000000000008152600401611eef90613e62565b60405180910390fd5b85810360008089815260200190815260200160002060008b73ffffffffffffffffffffffffffffffffffffffff1673ffffffffffffffffffffffffffffffffffffffff168152602001908152602001600020819055508560008089815260200190815260200160002060008a73ffffffffffffffffffffffffffffffffffffffff1673ffffffffffffffffffffffffffffffffffffffff1681526020019081526020016000206000828254611fad9190613870565b925050819055508773ffffffffffffffffffffffffffffffffffffffff168973ffffffffffffffffffffffffffffffffffffffff168573ffffffffffffffffffffffffffffffffffffffff167fc3d58168c5ae7397731d063d5bbf3d657854427343f4c083240f7aacaa2d0f628a8a60405161202a929190613f4b565b60405180910390a4612040848a8a86868a6121b4565b61204e848a8a8a8a8a612473565b505050505050505050565b600080600090507a184f03e93ff9f4daa797ed6e38ed64bf6a1f01000000000000000083106120b7577a184f03e93ff9f4daa797ed6e38ed64bf6a1f01000000000000000083816120ad576120ac613c9d565b5b0492506040810190505b6d04ee2d6d415b85acef810000000083106120f4576d04ee2d6d415b85acef810000000083816120ea576120e9613c9d565b5b0492506020810190505b662386f26fc10000831061212357662386f26fc10000838161211957612118613c9d565b5b0492506010810190505b6305f5e100831061214c576305f5e100838161214257612141613c9d565b5b0492506008810190505b612710831061217157612710838161216757612166613c9d565b5b0492506004810190505b60648310612194576064838161218a57612189613c9d565b5b0492506002810190505b600a83106121a3576001810190505b80915050919050565b505050505050565b505050505050565b6121db8473ffffffffffffffffffffffffffffffffffffffff1661265a565b1561239b578373ffffffffffffffffffffffffffffffffffffffff1663bc197c8187878686866040518663ffffffff1660e01b815260040161222195949392919061405b565b602060405180830381600087803b15801561223b57600080fd5b505af192505050801561226c57506040513d601f19601f8201168201806040525081019061226991906140d8565b60015b61231257612278614112565b806308c379a014156122d5575061228d614134565b8061229857506122d7565b806040517f08c379a00000000000000000000000000000000000000000000000000000000081526004016122cc9190612b86565b60405180910390fd5b505b6040517f08c379a00000000000000000000000000000000000000000000000000000000081526004016123099061423c565b60405180910390fd5b63bc197c8160e01b7bffffffffffffffffffffffffffffffffffffffffffffffffffffffff1916817bffffffffffffffffffffffffffffffffffffffffffffffffffffffff191614612399576040517f08c379a0000000000000000000000000000000000000000000000000000000008152600401612390906142ce565b60405180910390fd5b505b505050505050565b60008082905060005b84518110156123ee576123d9828683815181106123cc576123cb6137c9565b5b602002602001015161267d565b915080806123e690613827565b9150506123ac565b508091505092915050565b60606000600167ffffffffffffffff8111156124185761241761294a565b5b6040519080825280602002602001820160405280156124465781602001602082028036833780820191505090505b509050828160008151811061245e5761245d6137c9565b5b60200260200101818152505080915050919050565b6124928473ffffffffffffffffffffffffffffffffffffffff1661265a565b15612652578373ffffffffffffffffffffffffffffffffffffffff1663f23a6e6187878686866040518663ffffffff1660e01b81526004016124d89594939291906142ee565b602060405180830381600087803b1580156124f257600080fd5b505af192505050801561252357506040513d601f19601f8201168201806040525081019061252091906140d8565b60015b6125c95761252f614112565b806308c379a0141561258c5750612544614134565b8061254f575061258e565b806040517f08c379a00000000000000000000000000000000000000000000000000000000081526004016125839190612b86565b60405180910390fd5b505b6040517f08c379a00000000000000000000000000000000000000000000000000000000081526004016125c09061423c565b60405180910390fd5b63f23a6e6160e01b7bffffffffffffffffffffffffffffffffffffffffffffffffffffffff1916817bffffffffffffffffffffffffffffffffffffffffffffffffffffffff191614612650576040517f08c379a0000000000000000000000000000000000000000000000000000000008152600401612647906142ce565b60405180910390fd5b505b505050505050565b6000808273ffffffffffffffffffffffffffffffffffffffff163b119050919050565b60008183106126955761269082846126a8565b6126a0565b61269f83836126a8565b5b905092915050565b600082600052816020526040600020905092915050565b8280546126cb90613474565b90600052602060002090601f0160209004810192826126ed5760008555612734565b82601f1061270657805160ff1916838001178555612734565b82800160010185558215612734579182015b82811115612733578251825591602001919060010190612718565b5b5090506127419190612745565b5090565b5b8082111561275e576000816000905550600101612746565b5090565b6000604051905090565b600080fd5b600080fd5b600073ffffffffffffffffffffffffffffffffffffffff82169050919050565b60006127a182612776565b9050919050565b6127b181612796565b81146127bc57600080fd5b50565b6000813590506127ce816127a8565b92915050565b6000819050919050565b6127e7816127d4565b81146127f257600080fd5b50565b600081359050612804816127de565b92915050565b600080604083850312156128215761282061276c565b5b600061282f858286016127bf565b9250506020612840858286016127f5565b9150509250929050565b612853816127d4565b82525050565b600060208201905061286e600083018461284a565b92915050565b60007fffffffff0000000000000000000000000000000000000000000000000000000082169050919050565b6128a981612874565b81146128b457600080fd5b50565b6000813590506128c6816128a0565b92915050565b6000602082840312156128e2576128e161276c565b5b60006128f0848285016128b7565b91505092915050565b60008115159050919050565b61290e816128f9565b82525050565b60006020820190506129296000830184612905565b92915050565b600080fd5b600080fd5b6000601f19601f8301169050919050565b7f4e487b7100000000000000000000000000000000000000000000000000000000600052604160045260246000fd5b61298282612939565b810181811067ffffffffffffffff821117156129a1576129a061294a565b5b80604052505050565b60006129b4612762565b90506129c08282612979565b919050565b600067ffffffffffffffff8211156129e0576129df61294a565b5b6129e982612939565b9050602081019050919050565b82818337600083830152505050565b6000612a18612a13846129c5565b6129aa565b905082815260208101848484011115612a3457612a33612934565b5b612a3f8482856129f6565b509392505050565b600082601f830112612a5c57612a5b61292f565b5b8135612a6c848260208601612a05565b91505092915050565b600060208284031215612a8b57612a8a61276c565b5b600082013567ffffffffffffffff811115612aa957612aa8612771565b5b612ab584828501612a47565b91505092915050565b60008060408385031215612ad557612ad461276c565b5b6000612ae3858286016127f5565b9250506020612af4858286016127f5565b9150509250929050565b600081519050919050565b600082825260208201905092915050565b60005b83811015612b38578082015181840152602081019050612b1d565b83811115612b47576000848401525b50505050565b6000612b5882612afe565b612b628185612b09565b9350612b72818560208601612b1a565b612b7b81612939565b840191505092915050565b60006020820190508181036000830152612ba08184612b4d565b905092915050565b600060208284031215612bbe57612bbd61276c565b5b6000612bcc848285016127f5565b91505092915050565b600067ffffffffffffffff821115612bf057612bef61294a565b5b602082029050602081019050919050565b600080fd5b6000612c19612c1484612bd5565b6129aa565b90508083825260208201905060208402830185811115612c3c57612c3b612c01565b5b835b81811015612c655780612c5188826127f5565b845260208401935050602081019050612c3e565b5050509392505050565b600082601f830112612c8457612c8361292f565b5b8135612c94848260208601612c06565b91505092915050565b600067ffffffffffffffff821115612cb857612cb761294a565b5b612cc182612939565b9050602081019050919050565b6000612ce1612cdc84612c9d565b6129aa565b905082815260208101848484011115612cfd57612cfc612934565b5b612d088482856129f6565b509392505050565b600082601f830112612d2557612d2461292f565b5b8135612d35848260208601612cce565b91505092915050565b600080600080600060a08688031215612d5a57612d5961276c565b5b6000612d68888289016127bf565b9550506020612d79888289016127bf565b945050604086013567ffffffffffffffff811115612d9a57612d99612771565b5b612da688828901612c6f565b935050606086013567ffffffffffffffff811115612dc757612dc6612771565b5b612dd388828901612c6f565b925050608086013567ffffffffffffffff811115612df457612df3612771565b5b612e0088828901612d10565b9150509295509295909350565b6000819050919050565b612e2081612e0d565b82525050565b6000602082019050612e3b6000830184612e17565b92915050565b600067ffffffffffffffff821115612e5c57612e5b61294a565b5b602082029050602081019050919050565b6000612e80612e7b84612e41565b6129aa565b90508083825260208201905060208402830185811115612ea357612ea2612c01565b5b835b81811015612ecc5780612eb888826127bf565b845260208401935050602081019050612ea5565b5050509392505050565b600082601f830112612eeb57612eea61292f565b5b8135612efb848260208601612e6d565b91505092915050565b60008060408385031215612f1b57612f1a61276c565b5b600083013567ffffffffffffffff811115612f3957612f38612771565b5b612f4585828601612ed6565b925050602083013567ffffffffffffffff811115612f6657612f65612771565b5b612f7285828601612c6f565b9150509250929050565b600081519050919050565b600082825260208201905092915050565b6000819050602082019050919050565b612fb1816127d4565b82525050565b6000612fc38383612fa8565b60208301905092915050565b6000602082019050919050565b6000612fe782612f7c565b612ff18185612f87565b9350612ffc83612f98565b8060005b8381101561302d5781516130148882612fb7565b975061301f83612fcf565b925050600181019050613000565b5085935050505092915050565b600060208201905081810360008301526130548184612fdc565b905092915050565b600080fd5b60008083601f8401126130775761307661292f565b5b8235905067ffffffffffffffff8111156130945761309361305c565b5b6020830191508360208202830111156130b0576130af612c01565b5b9250929050565b600080600080606085870312156130d1576130d061276c565b5b60006130df878288016127f5565b94505060206130f0878288016127f5565b935050604085013567ffffffffffffffff81111561311157613110612771565b5b61311d87828801613061565b925092505092959194509250565b61313481612e0d565b811461313f57600080fd5b50565b6000813590506131518161312b565b92915050565b60006020828403121561316d5761316c61276c565b5b600061317b84828501613142565b91505092915050565b600061318f82612776565b9050919050565b61319f81613184565b82525050565b60006020820190506131ba6000830184613196565b92915050565b6131c981612796565b82525050565b60006020820190506131e460008301846131c0565b92915050565b6131f381613184565b81146131fe57600080fd5b50565b600081359050613210816131ea565b92915050565b60006020828403121561322c5761322b61276c565b5b600061323a84828501613201565b91505092915050565b61324c816128f9565b811461325757600080fd5b50565b60008135905061326981613243565b92915050565b600080604083850312156132865761328561276c565b5b6000613294858286016127bf565b92505060206132a58582860161325a565b9150509250929050565b600080604083850312156132c6576132c561276c565b5b60006132d4858286016127bf565b92505060206132e5858286016127bf565b9150509250929050565b600080600080600060a0868803121561330b5761330a61276c565b5b6000613319888289016127bf565b955050602061332a888289016127bf565b945050604061333b888289016127f5565b935050606061334c888289016127f5565b925050608086013567ffffffffffffffff81111561336d5761336c612771565b5b61337988828901612d10565b9150509295509295909350565b60006020828403121561339c5761339b61276c565b5b60006133aa848285016127bf565b91505092915050565b7f455243313135353a2061646472657373207a65726f206973206e6f742061207660008201527f616c6964206f776e657200000000000000000000000000000000000000000000602082015250565b600061340f602a83612b09565b915061341a826133b3565b604082019050919050565b6000602082019050818103600083015261343e81613402565b9050919050565b7f4e487b7100000000000000000000000000000000000000000000000000000000600052602260045260246000fd5b6000600282049050600182168061348c57607f821691505b602082108114156134a05761349f613445565b5b50919050565b600081905092915050565b7f68747470733a2f2f676174657761792e70696e6174612e636c6f75642f69706660008201527f732f516d53347a52536239506532486876416e4e51666e646d6432693850626d60208201527f674e6e4638464b794b6b374d4c3458552f000000000000000000000000000000604082015250565b60006135336051836134a6565b915061353e826134b1565b605182019050919050565b600061355482612afe565b61355e81856134a6565b935061356e818560208601612b1a565b80840191505092915050565b7f2e6a736f6e000000000000000000000000000000000000000000000000000000600082015250565b60006135b06005836134a6565b91506135bb8261357a565b600582019050919050565b60006135d182613526565b91506135dd8284613549565b91506135e8826135a3565b915081905092915050565b7f455243313135353a2063616c6c6572206973206e6f7420746f6b656e206f776e60008201527f6572206f7220617070726f766564000000000000000000000000000000000000602082015250565b600061364f602e83612b09565b915061365a826135f3565b604082019050919050565b6000602082019050818103600083015261367e81613642565b9050919050565b600081905092915050565b50565b60006136a0600083613685565b91506136ab82613690565b600082019050919050565b60006136c182613693565b9150819050919050565b7f7769746864726177206661696c65640000000000000000000000000000000000600082015250565b6000613701600f83612b09565b915061370c826136cb565b602082019050919050565b60006020820190508181036000830152613730816136f4565b9050919050565b7f455243313135353a206163636f756e747320616e6420696473206c656e67746860008201527f206d69736d617463680000000000000000000000000000000000000000000000602082015250565b6000613793602983612b09565b915061379e82613737565b604082019050919050565b600060208201905081810360008301526137c281613786565b9050919050565b7f4e487b7100000000000000000000000000000000000000000000000000000000600052603260045260246000fd5b7f4e487b7100000000000000000000000000000000000000000000000000000000600052601160045260246000fd5b6000613832826127d4565b91507fffffffffffffffffffffffffffffffffffffffffffffffffffffffffffffffff821415613865576138646137f8565b5b600182019050919050565b600061387b826127d4565b9150613886836127d4565b9250827fffffffffffffffffffffffffffffffffffffffffffffffffffffffffffffffff038211156138bb576138ba6137f8565b5b828201905092915050565b7f4e6f7420656e6f75676820737570706c69657300000000000000000000000000600082015250565b60006138fc601383612b09565b9150613907826138c6565b602082019050919050565b6000602082019050818103600083015261392b816138ef565b9050919050565b7f574c204d696e74696e67206973206e6f74206c69766500000000000000000000600082015250565b6000613968601683612b09565b915061397382613932565b602082019050919050565b600060208201905081810360008301526139978161395b565b9050919050565b60006139a9826127d4565b91506139b4836127d4565b9250817fffffffffffffffffffffffffffffffffffffffffffffffffffffffffffffffff04831182151516156139ed576139ec6137f8565b5b828202905092915050565b7f496e73756666696369656e742066756e64730000000000000000000000000000600082015250565b6000613a2e601283612b09565b9150613a39826139f8565b602082019050919050565b60006020820190508181036000830152613a5d81613a21565b9050919050565b7f457863656564206d6178206d696e740000000000000000000000000000000000600082015250565b6000613a9a600f83612b09565b9150613aa582613a64565b602082019050919050565b60006020820190508181036000830152613ac981613a8d565b9050919050565b60008160601b9050919050565b6000613ae882613ad0565b9050919050565b6000613afa82613add565b9050919050565b613b12613b0d82612796565b613aef565b82525050565b6000613b248284613b01565b60148201915081905092915050565b7f4e6f74206f6e20574c0000000000000000000000000000000000000000000000600082015250565b6000613b69600983612b09565b9150613b7482613b33565b602082019050919050565b60006020820190508181036000830152613b9881613b5c565b9050919050565b7f4f776e61626c653a206e6577206f776e657220697320746865207a65726f206160008201527f6464726573730000000000000000000000000000000000000000000000000000602082015250565b6000613bfb602683612b09565b9150613c0682613b9f565b604082019050919050565b60006020820190508181036000830152613c2a81613bee565b9050919050565b7f4f776e61626c653a2063616c6c6572206973206e6f7420746865206f776e6572600082015250565b6000613c67602083612b09565b9150613c7282613c31565b602082019050919050565b60006020820190508181036000830152613c9681613c5a565b9050919050565b7f4e487b7100000000000000000000000000000000000000000000000000000000600052601260045260246000fd5b7f455243313135353a2069647320616e6420616d6f756e7473206c656e6774682060008201527f6d69736d61746368000000000000000000000000000000000000000000000000602082015250565b6000613d28602883612b09565b9150613d3382613ccc565b604082019050919050565b60006020820190508181036000830152613d5781613d1b565b9050919050565b7f455243313135353a207472616e7366657220746f20746865207a65726f20616460008201527f6472657373000000000000000000000000000000000000000000000000000000602082015250565b6000613dba602583612b09565b9150613dc582613d5e565b604082019050919050565b60006020820190508181036000830152613de981613dad565b9050919050565b7f455243313135353a20696e73756666696369656e742062616c616e636520666f60008201527f72207472616e7366657200000000000000000000000000000000000000000000602082015250565b6000613e4c602a83612b09565b9150613e5782613df0565b604082019050919050565b60006020820190508181036000830152613e7b81613e3f565b9050919050565b60006040820190508181036000830152613e9c8185612fdc565b90508181036020830152613eb08184612fdc565b90509392505050565b7f455243313135353a206d696e7420746f20746865207a65726f2061646472657360008201527f7300000000000000000000000000000000000000000000000000000000000000602082015250565b6000613f15602183612b09565b9150613f2082613eb9565b604082019050919050565b60006020820190508181036000830152613f4481613f08565b9050919050565b6000604082019050613f60600083018561284a565b613f6d602083018461284a565b9392505050565b7f455243313135353a2073657474696e6720617070726f76616c2073746174757360008201527f20666f722073656c660000000000000000000000000000000000000000000000602082015250565b6000613fd0602983612b09565b9150613fdb82613f74565b604082019050919050565b60006020820190508181036000830152613fff81613fc3565b9050919050565b600081519050919050565b600082825260208201905092915050565b600061402d82614006565b6140378185614011565b9350614047818560208601612b1a565b61405081612939565b840191505092915050565b600060a08201905061407060008301886131c0565b61407d60208301876131c0565b818103604083015261408f8186612fdc565b905081810360608301526140a38185612fdc565b905081810360808301526140b78184614022565b90509695505050505050565b6000815190506140d2816128a0565b92915050565b6000602082840312156140ee576140ed61276c565b5b60006140fc848285016140c3565b91505092915050565b60008160e01c9050919050565b600060033d11156141315760046000803e61412e600051614105565b90505b90565b600060443d1015614144576141c7565b61414c612762565b60043d036004823e80513d602482011167ffffffffffffffff821117156141745750506141c7565b808201805167ffffffffffffffff81111561419257505050506141c7565b80602083010160043d0385018111156141af5750505050506141c7565b6141be82602001850186612979565b82955050505050505b90565b7f455243313135353a207472616e7366657220746f206e6f6e2d4552433131353560008201527f526563656976657220696d706c656d656e746572000000000000000000000000602082015250565b6000614226603483612b09565b9150614231826141ca565b604082019050919050565b6000602082019050818103600083015261425581614219565b9050919050565b7f455243313135353a204552433131353552656365697665722072656a6563746560008201527f6420746f6b656e73000000000000000000000000000000000000000000000000602082015250565b60006142b8602883612b09565b91506142c38261425c565b604082019050919050565b600060208201905081810360008301526142e7816142ab565b9050919050565b600060a08201905061430360008301886131c0565b61431060208301876131c0565b61431d604083018661284a565b61432a606083018561284a565b818103608083015261433c8184614022565b9050969550505050505056fea2646970667358221220de45e52405d39e5b61bd85affff7d2fb524ea4446e8ae87848c0304a3752e33564736f6c6343000809003368747470733a2f2f676174657761792e70696e6174612e636c6f75642f697066732f516d53347a52536239506532486876416e4e51666e646d6432693850626d674e6e4638464b794b6b374d4c3458552f7b69647d2e6a736f6e",
  "linkReferences": {},
  "deployedLinkReferences": {}
}